{
  "address": "0x2B8D5d4B1cf94FC4557349005491Cd626C374bF9",
  "abi": [
    {
      "inputs": [
        {
          "internalType": "address",
          "name": "_owner",
          "type": "address"
        },
        {
          "internalType": "address",
          "name": "_arbiter",
          "type": "address"
        }
      ],
      "stateMutability": "nonpayable",
      "type": "constructor"
    },
    {
      "inputs": [],
      "name": "InvalidAmount",
      "type": "error"
    },
    {
      "inputs": [
        {
          "internalType": "address",
          "name": "owner",
          "type": "address"
        }
      ],
      "name": "OwnableInvalidOwner",
      "type": "error"
    },
    {
      "inputs": [
        {
          "internalType": "address",
          "name": "account",
          "type": "address"
        }
      ],
      "name": "OwnableUnauthorizedAccount",
      "type": "error"
    },
    {
      "anonymous": false,
      "inputs": [
        {
          "indexed": true,
          "internalType": "uint256",
          "name": "index",
          "type": "uint256"
        },
        {
          "indexed": true,
          "internalType": "address",
          "name": "client",
          "type": "address"
        },
        {
          "indexed": false,
          "internalType": "uint256",
          "name": "bounty",
          "type": "uint256"
        },
        {
          "indexed": false,
          "internalType": "string",
          "name": "title",
          "type": "string"
        },
        {
          "indexed": false,
          "internalType": "string",
          "name": "tags",
          "type": "string"
        },
        {
          "indexed": false,
          "internalType": "enum VerificationMode",
          "name": "verificationMode",
          "type": "uint8"
        },
        {
          "indexed": false,
          "internalType": "address",
          "name": "escrowAddress",
          "type": "address"
        },
        {
          "indexed": false,
          "internalType": "uint256",
          "name": "postedTime",
          "type": "uint256"
        },
        {
          "indexed": false,
          "internalType": "string",
          "name": "IPFSHash",
          "type": "string"
        }
      ],
      "name": "JobCreated",
      "type": "event"
    },
    {
      "anonymous": false,
      "inputs": [
        {
          "indexed": true,
          "internalType": "address",
          "name": "previousOwner",
          "type": "address"
        },
        {
          "indexed": true,
          "internalType": "address",
          "name": "newOwner",
          "type": "address"
        }
      ],
      "name": "OwnershipTransferred",
      "type": "event"
    },
    {
      "inputs": [],
      "name": "arbiter",
      "outputs": [
        {
          "internalType": "address",
          "name": "",
          "type": "address"
        }
      ],
      "stateMutability": "view",
      "type": "function"
    },
    {
      "inputs": [
        {
          "internalType": "address",
          "name": "",
          "type": "address"
        }
      ],
      "name": "escrowStates",
      "outputs": [
        {
          "internalType": "uint256",
          "name": "index",
          "type": "uint256"
        },
        {
          "internalType": "address",
          "name": "client",
          "type": "address"
        },
        {
          "internalType": "uint256",
          "name": "bounty",
          "type": "uint256"
        },
        {
          "internalType": "string",
          "name": "title",
          "type": "string"
        },
        {
          "internalType": "address",
          "name": "escrowAddress",
          "type": "address"
        },
        {
          "internalType": "uint256",
          "name": "postedTime",
          "type": "uint256"
        },
        {
          "internalType": "string",
          "name": "IPFSHash",
          "type": "string"
        }
      ],
      "stateMutability": "view",
      "type": "function"
    },
    {
      "inputs": [
        {
          "internalType": "address",
          "name": "_escrowAddress",
          "type": "address"
        }
      ],
      "name": "getJobByEscrowAddress",
      "outputs": [
        {
          "components": [
            {
              "internalType": "uint256",
              "name": "index",
              "type": "uint256"
            },
            {
              "internalType": "address",
              "name": "client",
              "type": "address"
            },
            {
              "internalType": "uint256",
              "name": "bounty",
              "type": "uint256"
            },
            {
              "internalType": "string",
              "name": "title",
              "type": "string"
            },
            {
              "internalType": "address",
              "name": "escrowAddress",
              "type": "address"
            },
            {
              "internalType": "uint256",
              "name": "postedTime",
              "type": "uint256"
            },
            {
              "internalType": "string",
              "name": "IPFSHash",
              "type": "string"
            }
          ],
          "internalType": "struct JobMetadata",
          "name": "",
          "type": "tuple"
        }
      ],
      "stateMutability": "view",
      "type": "function"
    },
    {
      "inputs": [],
      "name": "getJobs",
      "outputs": [
        {
          "components": [
            {
              "internalType": "uint256",
              "name": "index",
              "type": "uint256"
            },
            {
              "internalType": "address",
              "name": "client",
              "type": "address"
            },
            {
              "internalType": "uint256",
              "name": "bounty",
              "type": "uint256"
            },
            {
              "internalType": "string",
              "name": "title",
              "type": "string"
            },
            {
              "internalType": "address",
              "name": "escrowAddress",
              "type": "address"
            },
            {
              "internalType": "uint256",
              "name": "postedTime",
              "type": "uint256"
            },
            {
              "internalType": "string",
              "name": "IPFSHash",
              "type": "string"
            }
          ],
          "internalType": "struct JobMetadata[]",
          "name": "",
          "type": "tuple[]"
        }
      ],
      "stateMutability": "view",
      "type": "function"
    },
    {
      "inputs": [
        {
          "internalType": "uint256",
          "name": "",
          "type": "uint256"
        }
      ],
      "name": "jobs",
      "outputs": [
        {
          "internalType": "uint256",
          "name": "index",
          "type": "uint256"
        },
        {
          "internalType": "address",
          "name": "client",
          "type": "address"
        },
        {
          "internalType": "uint256",
          "name": "bounty",
          "type": "uint256"
        },
        {
          "internalType": "string",
          "name": "title",
          "type": "string"
        },
        {
          "internalType": "address",
          "name": "escrowAddress",
          "type": "address"
        },
        {
          "internalType": "uint256",
          "name": "postedTime",
          "type": "uint256"
        },
        {
          "internalType": "string",
          "name": "IPFSHash",
          "type": "string"
        }
      ],
      "stateMutability": "view",
      "type": "function"
    },
    {
      "inputs": [],
      "name": "owner",
      "outputs": [
        {
          "internalType": "address",
          "name": "",
          "type": "address"
        }
      ],
      "stateMutability": "view",
      "type": "function"
    },
    {
      "inputs": [
        {
          "internalType": "string",
          "name": "_title",
          "type": "string"
        },
        {
          "internalType": "string",
          "name": "_IPFSHash",
          "type": "string"
        },
        {
          "internalType": "string",
          "name": "tags",
          "type": "string"
        },
        {
          "internalType": "enum VerificationMode",
          "name": "_verificationMode",
          "type": "uint8"
        }
      ],
      "name": "postJob",
      "outputs": [
        {
          "internalType": "address",
          "name": "",
          "type": "address"
        }
      ],
      "stateMutability": "payable",
      "type": "function"
    },
    {
      "inputs": [],
      "name": "renounceOwnership",
      "outputs": [],
      "stateMutability": "nonpayable",
      "type": "function"
    },
    {
      "inputs": [
        {
          "internalType": "address",
          "name": "newOwner",
          "type": "address"
        }
      ],
      "name": "transferOwnership",
      "outputs": [],
      "stateMutability": "nonpayable",
      "type": "function"
    }
  ],
  "transactionHash": "0xba24c3f38c8916d22e8f587766c841261f88665f2eadab9f26993ad4e51c28db",
  "args": [
    "0x2D2ca9529583558c1ADCcA8009b81F06F9246Cdf",
    "0x435Ee927E766ED8Fa0e6a29aBA4F6aD1663cAbf9"
  ],
  "numDeployments": 1,
  "solcInputHash": "0af59454b2014b90aefb3d429c8cd723",
  "bytecode": "0x608060405234801561001057600080fd5b5060405161308138038061308183398101604081905261002f916100fa565b816001600160a01b03811661005e57604051631e4fbdf760e01b81526000600482015260240160405180910390fd5b6100678161008e565b50600180546001600160a01b0319166001600160a01b03929092169190911790555061012d565b600080546001600160a01b038381166001600160a01b0319831681178455604051919092169283917f8be0079c531659141344cd1fd0a4f28419497f9722a3daafe3b4186f6b6457e09190a35050565b80516001600160a01b03811681146100f557600080fd5b919050565b6000806040838503121561010d57600080fd5b610116836100de565b9150610124602084016100de565b90509250929050565b612f458061013c6000396000f3fe6080604052600436106100865760003560e01c80638da5cb5b116100595780638da5cb5b1461012b578063ac725c8b14610149578063dcc6b3a414610169578063f2fde38b14610196578063fe25e00a146101b657600080fd5b8063180aedf31461008b57806364ef21de146100c757806368581ebd146100f2578063715018a614610114575b600080fd5b34801561009757600080fd5b506100ab6100a6366004610c1c565b6101d6565b6040516100be9796959493929190610c7b565b60405180910390f35b6100da6100d5366004610d97565b610350565b6040516001600160a01b0390911681526020016100be565b3480156100fe57600080fd5b50610107610751565b6040516100be9190610eea565b34801561012057600080fd5b50610129610920565b005b34801561013757600080fd5b506000546001600160a01b03166100da565b34801561015557600080fd5b506100ab610164366004610f4f565b610934565b34801561017557600080fd5b50610189610184366004610f4f565b61096f565b6040516100be9190610f7f565b3480156101a257600080fd5b506101296101b1366004610f4f565b610b54565b3480156101c257600080fd5b506001546100da906001600160a01b031681565b600281815481106101e657600080fd5b600091825260209091206007909102018054600182015460028301546003840180549395506001600160a01b0390921693909290919061022590610f92565b80601f016020809104026020016040519081016040528092919081815260200182805461025190610f92565b801561029e5780601f106102735761010080835404028352916020019161029e565b820191906000526020600020905b81548152906001019060200180831161028157829003601f168201915b505050506004830154600584015460068501805494956001600160a01b0390931694919350906102cd90610f92565b80601f01602080910402602001604051908101604052809291908181526020018280546102f990610f92565b80156103465780601f1061031b57610100808354040283529160200191610346565b820191906000526020600020905b81548152906001019060200180831161032957829003601f168201915b5050505050905087565b6000346000036103735760405163162908e360e11b815260040160405180910390fd5b6001546001600160a01b031633036103d25760405162461bcd60e51b815260206004820152601960248201527f417262697465722063616e6e6f7420706f73742061206a6f620000000000000060448201526064015b60405180910390fd5b600034878733600160009054906101000a90046001600160a01b03168989896040516103fd90610c0f565b61040d9796959493929190610fee565b6040518091039082f090508015801561042a573d6000803e3d6000fd5b50905060006040518060e001604052806002805490508152602001336001600160a01b0316815260200134815260200189898080601f0160208091040260200160405190810160405280939291908181526020018383808284376000920191909152505050908252506001600160a01b038416602080830182905260408051637a40624b60e01b815281519190940193637a40624b9260048083019391928290030181865afa1580156104e1573d6000803e3d6000fd5b505050506040513d601f19601f820116820180604052508101906105059190611073565b815260200187815250905080602001516001600160a01b031681600001517f793f428c71f4e8b75a460d6ed0254277df01a47ce9cc002a896ac6354e2b4d2a83604001518460600151898987608001518860a001518960c00151604051610572979695949392919061108c565b60405180910390a36002805460018101825560009190915281517f405787fa12a823e0f2b7631cc41b3ba8828b3321ca811111fa75cd3aa3bb5ace600790920291820190815560208301517f405787fa12a823e0f2b7631cc41b3ba8828b3321ca811111fa75cd3aa3bb5acf830180546001600160a01b0319166001600160a01b0390921691909117905560408301517f405787fa12a823e0f2b7631cc41b3ba8828b3321ca811111fa75cd3aa3bb5ad0830155606083015183927f405787fa12a823e0f2b7631cc41b3ba8828b3321ca811111fa75cd3aa3bb5ad1019061065a9082611115565b5060808201516004820180546001600160a01b0319166001600160a01b0390921691909117905560a0820151600582015560c0820151600682019061069f9082611115565b5050506001600160a01b0382811660009081526003602081815260409283902085518155908501516001820180546001600160a01b031916919095161790935590830151600283015560608301518392918201906106fd9082611115565b5060808201516004820180546001600160a01b0319166001600160a01b0390921691909117905560a0820151600582015560c082015160068201906107429082611115565b50929998505050505050505050565b60606002805480602002602001604051908101604052809291908181526020016000905b828210156109175760008481526020908190206040805160e081018252600786029092018054835260018101546001600160a01b0316938301939093526002830154908201526003820180549192916060840191906107d390610f92565b80601f01602080910402602001604051908101604052809291908181526020018280546107ff90610f92565b801561084c5780601f106108215761010080835404028352916020019161084c565b820191906000526020600020905b81548152906001019060200180831161082f57829003601f168201915b505050918352505060048201546001600160a01b031660208201526005820154604082015260068201805460609092019161088690610f92565b80601f01602080910402602001604051908101604052809291908181526020018280546108b290610f92565b80156108ff5780601f106108d4576101008083540402835291602001916108ff565b820191906000526020600020905b8154815290600101906020018083116108e257829003601f168201915b50505050508152505081526020019060010190610775565b50505050905090565b610928610b92565b6109326000610bbf565b565b6003602081905260009182526040909120805460018201546002830154938301805492946001600160a01b0390921693919261022590610f92565b6109c16040518060e001604052806000815260200160006001600160a01b03168152602001600081526020016060815260200160006001600160a01b0316815260200160008152602001606081525090565b6001600160a01b03808316600090815260036020818152604092839020835160e0810185528154815260018201549095169185019190915260028101549284019290925281018054606084019190610a1890610f92565b80601f0160208091040260200160405190810160405280929190818152602001828054610a4490610f92565b8015610a915780601f10610a6657610100808354040283529160200191610a91565b820191906000526020600020905b815481529060010190602001808311610a7457829003601f168201915b505050918352505060048201546001600160a01b0316602082015260058201546040820152600682018054606090920191610acb90610f92565b80601f0160208091040260200160405190810160405280929190818152602001828054610af790610f92565b8015610b445780601f10610b1957610100808354040283529160200191610b44565b820191906000526020600020905b815481529060010190602001808311610b2757829003601f168201915b5050505050815250509050919050565b610b5c610b92565b6001600160a01b038116610b8657604051631e4fbdf760e01b8152600060048201526024016103c9565b610b8f81610bbf565b50565b6000546001600160a01b031633146109325760405163118cdaa760e01b81523360048201526024016103c9565b600080546001600160a01b038381166001600160a01b0319831681178455604051919092169283917f8be0079c531659141344cd1fd0a4f28419497f9722a3daafe3b4186f6b6457e09190a35050565b611d3b806111d583390190565b600060208284031215610c2e57600080fd5b5035919050565b6000815180845260005b81811015610c5b57602081850181015186830182015201610c3f565b506000602082860101526020601f19601f83011685010191505092915050565b87815260018060a01b038716602082015285604082015260e060608201526000610ca860e0830187610c35565b6001600160a01b038616608084015260a0830185905282810360c0840152610cd08185610c35565b9a9950505050505050505050565b634e487b7160e01b600052604160045260246000fd5b600082601f830112610d0557600080fd5b813567ffffffffffffffff811115610d1f57610d1f610cde565b604051601f8201601f19908116603f0116810167ffffffffffffffff81118282101715610d4e57610d4e610cde565b604052818152838201602001851015610d6657600080fd5b816020850160208301376000918101602001919091529392505050565b803560028110610d9257600080fd5b919050565b600080600080600060808688031215610daf57600080fd5b853567ffffffffffffffff811115610dc657600080fd5b8601601f81018813610dd757600080fd5b803567ffffffffffffffff811115610dee57600080fd5b886020828401011115610e0057600080fd5b60209182019650945086013567ffffffffffffffff811115610e2157600080fd5b610e2d88828901610cf4565b935050604086013567ffffffffffffffff811115610e4a57600080fd5b610e5688828901610cf4565b925050610e6560608701610d83565b90509295509295909350565b8051825260018060a01b036020820151166020830152604081015160408301526000606082015160e06060850152610eac60e0850182610c35565b905060018060a01b03608084015116608085015260a083015160a085015260c083015184820360c0860152610ee18282610c35565b95945050505050565b6000602082016020835280845180835260408501915060408160051b86010192506020860160005b82811015610f4357603f19878603018452610f2e858351610e71565b94506020938401939190910190600101610f12565b50929695505050505050565b600060208284031215610f6157600080fd5b81356001600160a01b0381168114610f7857600080fd5b9392505050565b602081526000610f786020830184610e71565b600181811c90821680610fa657607f821691505b602082108103610fc657634e487b7160e01b600052602260045260246000fd5b50919050565b60028110610fea57634e487b7160e01b600052602160045260246000fd5b9052565b60c081528660c0820152868860e0830137600060e088830181018290526001600160a01b03888116602085015287166040840152601f8901601f19168301838103820160608501529061104390820187610c35565b905082810360808401526110578186610c35565b91505061106760a0830184610fcc565b98975050505050505050565b60006020828403121561108557600080fd5b5051919050565b87815260e0602082015260006110a560e0830189610c35565b82810360408401526110b78189610c35565b9050610ca86060840188610fcc565b601f82111561111057806000526020600020601f840160051c810160208510156110ed5750805b601f840160051c820191505b8181101561110d57600081556001016110f9565b50505b505050565b815167ffffffffffffffff81111561112f5761112f610cde565b6111438161113d8454610f92565b846110c6565b6020601f821160018114611177576000831561115f5750848201515b600019600385901b1c1916600184901b17845561110d565b600084815260208120601f198516915b828110156111a75787850151825560209485019460019092019101611187565b50848210156111c55786840151600019600387901b60f8161c191681555b50505050600190811b0190555056fe6080604052604051611d3b380380611d3b83398101604081905261002291610206565b3460000361004357604051638fd3de7f60e01b815260040160405180910390fd5b600180546001600160a01b038088166001600160a01b0319928316179092556003805492871692909116919091179055600561007f878261035c565b50346000556004610090848261035c565b50600661009d838261035c565b50600d805482919060ff1916600183818111156100bc576100bc61041a565b0217905550426007819055436008556040516001600160a01b038716916000917f793f428c71f4e8b75a460d6ed0254277df01a47ce9cc002a896ac6354e2b4d2a916101149134918c91899189913091908d9061045c565b60405180910390a35050505050506104e4565b634e487b7160e01b600052604160045260246000fd5b60005b83811015610158578181015183820152602001610140565b50506000910152565b600082601f83011261017257600080fd5b81516001600160401b0381111561018b5761018b610127565b604051601f8201601f19908116603f011681016001600160401b03811182821017156101b9576101b9610127565b6040528181528382016020018510156101d157600080fd5b6101e282602083016020870161013d565b949350505050565b80516001600160a01b038116811461020157600080fd5b919050565b60008060008060008060c0878903121561021f57600080fd5b86516001600160401b0381111561023557600080fd5b61024189828a01610161565b965050610250602088016101ea565b945061025e604088016101ea565b60608801519094506001600160401b0381111561027a57600080fd5b61028689828a01610161565b608089015190945090506001600160401b038111156102a457600080fd5b6102b089828a01610161565b92505060a0870151600281106102c557600080fd5b809150509295509295509295565b600181811c908216806102e757607f821691505b60208210810361030757634e487b7160e01b600052602260045260246000fd5b50919050565b601f82111561035757806000526020600020601f840160051c810160208510156103345750805b601f840160051c820191505b818110156103545760008155600101610340565b50505b505050565b81516001600160401b0381111561037557610375610127565b6103898161038384546102d3565b8461030d565b6020601f8211600181146103bd57600083156103a55750848201515b600019600385901b1c1916600184901b178455610354565b600084815260208120601f198516915b828110156103ed57878501518255602094850194600190920191016103cd565b508482101561040b5786840151600019600387901b60f8161c191681555b50505050600190811b01905550565b634e487b7160e01b600052602160045260246000fd5b6000815180845261044881602086016020860161013d565b601f01601f19169290920160200192915050565b87815260e06020820152600061047560e0830189610430565b82810360408401526104878189610430565b9050600287106104a757634e487b7160e01b600052602160045260246000fd5b606083018790526001600160a01b038616608084015260a0830185905282810360c08401526104d68185610430565b9a9950505050505050505050565b611848806104f36000396000f3fe608060405234801561001057600080fd5b50600436106101005760003560e01c806389e1e82a11610097578063a3ec191a11610066578063a3ec191a146101d9578063a507d44b146101e2578063b07c7475146101f0578063f240f7c3146101f857600080fd5b806389e1e82a146101ac57806395a99dc3146101bf5780639ca4218f146101c7578063a36693b1146101d157600080fd5b806363de5323116100d357806363de532314610148578063755d7bbd1461017a5780637a40624b14610182578063811d44141461019957600080fd5b8063095da7f6146101055780633086848f1461011a57806333cab1c61461012257806363c1d39e1461012a575b600080fd5b6101186101133660046112ed565b610200565b005b610118610335565b610118610408565b610132610514565b60405161013f9190611432565b60405180910390f35b61015b6101563660046115b4565b610935565b604080516001600160a01b03909316835260208301919091520161013f565b61011861096d565b61018b60075481565b60405190815260200161013f565b6101186101a73660046115cd565b610b35565b6101186101ba3660046115fd565b610c5d565b610118610dd6565b61018b62093a8081565b610118610ee1565b61018b60085481565b61018b662386f26fc1000081565b610118610fb0565b610118611079565b6002546001600160a01b0316331461022b57604051631648fd0160e01b815260040160405180910390fd5b600b5460029060ff166006811115610245576102456113f8565b816006811115610257576102576113f8565b146102755760405163207b868560e21b815260040160405180910390fd5b600b805460ff1916600317905561028f62093a8042611635565b600c55600e61029f8385836116ed565b50811580156102c457506000600d5460ff1660018111156102c2576102c26113f8565b145b156102e25760405163ac5965b960e01b815260040160405180910390fd5b600254600d546040517fba4fa2ff4774978c17103bd8771bd3dddb32f0b9a6ce89524b41380cfc91811f92610328926001600160a01b0390911691429160ff16906117ad565b60405180910390a1505050565b6001546001600160a01b0316331461036057604051631648fd0160e01b815260040160405180910390fd5b600b5460039060ff16600681111561037a5761037a6113f8565b81600681111561038c5761038c6113f8565b146103aa5760405163207b868560e21b815260040160405180910390fd5b600b805460ff19166005179055600254600d546040517f51cd338bb7dd4def87f250453c522ebcc320ec12a11dfb953f2489fdeda460b4926103fd926001600160a01b0390911691429160ff16906117ad565b60405180910390a150565b600b5460059060ff166006811115610422576104226113f8565b816006811115610434576104346113f8565b146104525760405163207b868560e21b815260040160405180910390fd5b60025460405147916000916001600160a01b039091169083908381818185875af1925050503d80600081146104a3576040519150601f19603f3d011682016040523d82523d6000602084013e6104a8565b606091505b50509050806104ca576040516307a4ced160e51b815260040160405180910390fd5b600254604080516001600160a01b0390921682526020820184905242908201527fbbbff536327beba1aec52c32d9986b51226e00d1ccad4c5011ffe4932a16f9a890606001610328565b61051c61124f565b60408051610240810182526001546001600160a01b0390811682526002548116602083015260035416918101919091526004805460608301919061055f90611664565b80601f016020809104026020016040519081016040528092919081815260200182805461058b90611664565b80156105d85780601f106105ad576101008083540402835291602001916105d8565b820191906000526020600020905b8154815290600101906020018083116105bb57829003601f168201915b50505050508152602001600680546105ef90611664565b80601f016020809104026020016040519081016040528092919081815260200182805461061b90611664565b80156106685780601f1061063d57610100808354040283529160200191610668565b820191906000526020600020905b81548152906001019060200180831161064b57829003601f168201915b50505050508152602001600754815260200160085481526020016009805480602002602001604051908101604052809291908181526020016000905b828210156106ec576000848152602090819020604080518082019091526002850290910180546001600160a01b031682526001908101548284015290835290920191016106a4565b50505090825250600b5460209091019060ff166006811115610710576107106113f8565b81526020016005805461072290611664565b80601f016020809104026020016040519081016040528092919081815260200182805461074e90611664565b801561079b5780601f106107705761010080835404028352916020019161079b565b820191906000526020600020905b81548152906001019060200180831161077e57829003601f168201915b5050509183525050476020820152600c546040820152600d5460609091019060ff1660018111156107ce576107ce6113f8565b8152336000908152600a602090815260408083205460ff1615159184019190915290910190600b5460ff16600681111561080a5761080a6113f8565b148061082c57506001600b5460ff16600681111561082a5761082a6113f8565b145b80156108485750336000908152600a602052604090205460ff16155b801561085f57506001546001600160a01b03163314155b801561087657506003546001600160a01b03163314155b15158152600154336001600160a01b0391821681146020840152600354909116146040820152600e80546060909201916108af90611664565b80601f01602080910402602001604051908101604052809291908181526020018280546108db90611664565b80156109285780601f106108fd57610100808354040283529160200191610928565b820191906000526020600020905b81548152906001019060200180831161090b57829003601f168201915b5050505050815250905090565b6009818154811061094557600080fd5b6000918252602090912060029091020180546001909101546001600160a01b03909116915082565b6000600b5460ff166006811115610986576109866113f8565b141580156109ab57506001600b5460ff1660068111156109a8576109a86113f8565b14155b156109c95760405163207b868560e21b815260040160405180910390fd5b336000908152600a602052604090205460ff16156109f95760405162540c0360e11b815260040160405180910390fd5b6001546001600160a01b0316331480610a1c57506003546001600160a01b031633145b15610a3a576040516397de196b60e01b815260040160405180910390fd5b336000818152600a602090815260408083208054600160ff1991821681179092558251808401845286815242818601818152600980548087018255985291517f6e1540171b6c0c960b71a7020d9f60077f6af931a8bbf590da0223dacf75c7af600290980297880180546001600160a01b0319166001600160a01b0392831617905591517f6e1540171b6c0c960b71a7020d9f60077f6af931a8bbf590da0223dacf75c7b090970196909655600b80549092168317909155905482519116815291820193909352918201527fb7565be986a795cc8c6e0d4bccf8b2b8e200cda95fb33f788de04a3108c4f38a906060015b60405180910390a1565b6001546001600160a01b03163314610b6057604051631648fd0160e01b815260040160405180910390fd5b600b5460019060ff166006811115610b7a57610b7a6113f8565b816006811115610b8c57610b8c6113f8565b14610baa5760405163207b868560e21b815260040160405180910390fd5b600280546001600160a01b0319166001600160a01b0384169081179091556000908152600a602052604090205460ff16610bf7576040516397de196b60e01b815260040160405180910390fd5b600b805460ff191660029081179091556001549054604080516001600160a01b03938416815292909116602083015242908201527fc0ed7608aef02c950470054b5b1d3e512cf38e6c2601714c13aefa0e56b0f055906060015b60405180910390a15050565b6003546001600160a01b03163314610c8857604051631648fd0160e01b815260040160405180910390fd5b80610c94576006610c97565b60055b600b805460ff19166001836006811115610cb357610cb36113f8565b0217905550610cc0611159565b6003547f5f74499d9d620a2be80f255d04fbad08d92bd2bfcd13f433f7c5d63258e38439906001600160a01b0316824281610d06576001546001600160a01b0316610d13565b6002546001600160a01b03165b604080516001600160a01b0395861681529315156020850152830191909152909116606082015260800160405180910390a18015610d9157600254600d546040517f51cd338bb7dd4def87f250453c522ebcc320ec12a11dfb953f2489fdeda460b4926103fd926001600160a01b0390911691429160ff16906117ad565b600154604080516001600160a01b0390921682524260208301527f802f1675de6bcae4f345ab030a16843f3d5c2556a4e27e5bfaaa38ee2c6a0bb691016103fd565b50565b600b5460069060ff1681811115610def57610def6113f8565b816006811115610e0157610e016113f8565b14610e1f5760405163207b868560e21b815260040160405180910390fd5b60015460405147916000916001600160a01b039091169083908381818185875af1925050503d8060008114610e70576040519150601f19603f3d011682016040523d82523d6000602084013e610e75565b606091505b5050905080610e97576040516307a4ced160e51b815260040160405180910390fd5b600154604080516001600160a01b0390921682526020820184905242908201527fc1650200c9e4b5b1e253da6de8b51db61f03f65c1073b22114c5c82006ab657090606001610328565b600b5460039060ff166006811115610efb57610efb6113f8565b816006811115610f0d57610f0d6113f8565b14610f2b5760405163207b868560e21b815260040160405180910390fd5b600c544211610f4d5760405163207b868560e21b815260040160405180910390fd5b600b805460ff19166005179055600254600d546040517f51cd338bb7dd4def87f250453c522ebcc320ec12a11dfb953f2489fdeda460b492610fa0926001600160a01b0390911691429160ff16906117ad565b60405180910390a1610dd3610408565b6001546001600160a01b03163314610fdb57604051631648fd0160e01b815260040160405180910390fd5b6000600b5460ff166006811115610ff457610ff46113f8565b1415801561101957506001600b5460ff166006811115611016576110166113f8565b14155b156110375760405163207b868560e21b815260040160405180910390fd5b600b805460ff19166006179055604080513381524260208201527f802f1675de6bcae4f345ab030a16843f3d5c2556a4e27e5bfaaa38ee2c6a0bb69101610b2b565b6001546001600160a01b031633146110a457604051631648fd0160e01b815260040160405180910390fd5b600b5460039060ff1660068111156110be576110be6113f8565b8160068111156110d0576110d06113f8565b146110ee5760405163207b868560e21b815260040160405180910390fd5b600c544211156111115760405163207b868560e21b815260040160405180910390fd5b600b805460ff19166004179055600d546040517f45e047b12e8caad0abdc590f9dc078bc8c71db11a37d406fc2748f9ffc949c82916103fd913391429160ff909116906117ad565b6000670de0b6b3a7640000611175662386f26fc10000476117d9565b61117f91906117f0565b6003546040519192506000916001600160a01b039091169083908381818185875af1925050503d80600081146111d1576040519150601f19603f3d011682016040523d82523d6000602084013e6111d6565b606091505b50509050806111f8576040516307a4ced160e51b815260040160405180910390fd5b600354604080516001600160a01b039092168252602082018490524290820152662386f26fc1000060608201527f0da719d677bbf293804f3f3952a78e52f1252c79f778956cb46c21f35c8b7cc690608001610c51565b604080516102408101825260008082526020820181905291810182905260608082018190526080820181905260a0820183905260c0820183905260e0820152906101008201908152602001606081526020016000815260200160008152602001600060018111156112c2576112c26113f8565b8152600060208201819052604082018190526060808301829052608083019190915260a09091015290565b6000806020838503121561130057600080fd5b823567ffffffffffffffff81111561131757600080fd5b8301601f8101851361132857600080fd5b803567ffffffffffffffff81111561133f57600080fd5b85602082840101111561135157600080fd5b6020919091019590945092505050565b6000815180845260005b818110156113875760208185018101518683018201520161136b565b506000602082860101526020601f19601f83011685010191505092915050565b600081518084526020840193506020830160005b828110156113ee57815180516001600160a01b0316875260209081015181880152604090960195909101906001016113bb565b5093949350505050565b634e487b7160e01b600052602160045260246000fd5b6007811061141e5761141e6113f8565b9052565b6002811061141e5761141e6113f8565b6020815261144c6020820183516001600160a01b03169052565b6000602083015161146860408401826001600160a01b03169052565b5060408301516001600160a01b03811660608401525060608301516102406080840152611499610260840182611361565b90506080840151601f198483030160a08501526114b68282611361565b91505060a084015160c084015260c084015160e084015260e0840151601f19848303016101008501526114e982826113a7565b91505061010084015161150061012085018261140e565b50610120840151838203601f190161014085015261151e8282611361565b91505061014084015161016084015261016084015161018084015261018084015161154d6101a0850182611422565b506101a08401518015156101c0850152506101c08401518015156101e0850152506101e08401518015156102008501525061020084015180151561022085015250610220840151838203601f19016102408501526115ab8282611361565b95945050505050565b6000602082840312156115c657600080fd5b5035919050565b6000602082840312156115df57600080fd5b81356001600160a01b03811681146115f657600080fd5b9392505050565b60006020828403121561160f57600080fd5b813580151581146115f657600080fd5b634e487b7160e01b600052601160045260246000fd5b808201808211156116485761164861161f565b92915050565b634e487b7160e01b600052604160045260246000fd5b600181811c9082168061167857607f821691505b60208210810361169857634e487b7160e01b600052602260045260246000fd5b50919050565b601f8211156116e857806000526020600020601f840160051c810160208510156116c55750805b601f840160051c820191505b818110156116e557600081556001016116d1565b50505b505050565b67ffffffffffffffff8311156117055761170561164e565b611719836117138354611664565b8361169e565b6000601f84116001811461174d57600085156117355750838201355b600019600387901b1c1916600186901b1783556116e5565b600083815260209020601f19861690835b8281101561177e578685013582556020948501946001909201910161175e565b508682101561179b5760001960f88860031b161c19848701351681555b505060018560011b0183555050505050565b6001600160a01b038416815260208101839052606081016117d16040830184611422565b949350505050565b80820281158282048414176116485761164861161f565b60008261180d57634e487b7160e01b600052601260045260246000fd5b50049056fea2646970667358221220455e48bcc3b1a668a40f5ee9869ba957507a04f63af42dfdb1d6b5a48b68001a64736f6c634300081e0033a264697066735822122016156db97098004383ae7e413a24f452d43333ffd6d155e072d3868cc038775164736f6c634300081e0033",
  "devdoc": {
    "errors": {
      "OwnableInvalidOwner(address)": [
        {
          "details": "The owner is not a valid owner account. (eg. `address(0)`)"
        }
      ],
      "OwnableUnauthorizedAccount(address)": [
        {
          "details": "The caller account is not authorized to perform an operation."
        }
      ]
    },
    "kind": "dev",
    "methods": {
      "owner()": {
        "details": "Returns the address of the current owner."
      },
      "renounceOwnership()": {
        "details": "Leaves the contract without owner. It will not be possible to call `onlyOwner` functions. Can only be called by the current owner. NOTE: Renouncing ownership will leave the contract without an owner, thereby disabling any functionality that is only available to the owner."
      },
      "transferOwnership(address)": {
        "details": "Transfers ownership of the contract to a new account (`newOwner`). Can only be called by the current owner."
      }
    },
    "version": 1
  },
  "userdoc": {
    "kind": "user",
    "methods": {},
    "version": 1
  },
  "storageLayout": {
    "storage": [
      {
        "astId": 8,
        "contract": "contracts/MergeFactory.sol:MergeFactory",
        "label": "_owner",
        "offset": 0,
        "slot": "0",
        "type": "t_address"
      },
      {
        "astId": 1075,
        "contract": "contracts/MergeFactory.sol:MergeFactory",
        "label": "arbiter",
        "offset": 0,
        "slot": "1",
        "type": "t_address"
      },
      {
        "astId": 1079,
        "contract": "contracts/MergeFactory.sol:MergeFactory",
        "label": "jobs",
        "offset": 0,
        "slot": "2",
        "type": "t_array(t_struct(JobMetadata)1069_storage)dyn_storage"
      },
      {
        "astId": 1084,
        "contract": "contracts/MergeFactory.sol:MergeFactory",
        "label": "escrowStates",
        "offset": 0,
        "slot": "3",
        "type": "t_mapping(t_address,t_struct(JobMetadata)1069_storage)"
      }
    ],
    "types": {
      "t_address": {
        "encoding": "inplace",
        "label": "address",
        "numberOfBytes": "20"
      },
      "t_array(t_struct(JobMetadata)1069_storage)dyn_storage": {
        "base": "t_struct(JobMetadata)1069_storage",
        "encoding": "dynamic_array",
        "label": "struct JobMetadata[]",
        "numberOfBytes": "32"
      },
      "t_mapping(t_address,t_struct(JobMetadata)1069_storage)": {
        "encoding": "mapping",
        "key": "t_address",
        "label": "mapping(address => struct JobMetadata)",
        "numberOfBytes": "32",
        "value": "t_struct(JobMetadata)1069_storage"
      },
      "t_string_storage": {
        "encoding": "bytes",
        "label": "string",
        "numberOfBytes": "32"
      },
      "t_struct(JobMetadata)1069_storage": {
        "encoding": "inplace",
        "label": "struct JobMetadata",
        "members": [
          {
            "astId": 1056,
            "contract": "contracts/MergeFactory.sol:MergeFactory",
            "label": "index",
            "offset": 0,
            "slot": "0",
            "type": "t_uint256"
          },
          {
            "astId": 1058,
            "contract": "contracts/MergeFactory.sol:MergeFactory",
            "label": "client",
            "offset": 0,
            "slot": "1",
            "type": "t_address"
          },
          {
            "astId": 1060,
            "contract": "contracts/MergeFactory.sol:MergeFactory",
            "label": "bounty",
            "offset": 0,
            "slot": "2",
            "type": "t_uint256"
          },
          {
            "astId": 1062,
            "contract": "contracts/MergeFactory.sol:MergeFactory",
            "label": "title",
            "offset": 0,
            "slot": "3",
            "type": "t_string_storage"
          },
          {
            "astId": 1064,
            "contract": "contracts/MergeFactory.sol:MergeFactory",
            "label": "escrowAddress",
            "offset": 0,
            "slot": "4",
            "type": "t_address"
          },
          {
            "astId": 1066,
            "contract": "contracts/MergeFactory.sol:MergeFactory",
            "label": "postedTime",
            "offset": 0,
            "slot": "5",
            "type": "t_uint256"
          },
          {
            "astId": 1068,
            "contract": "contracts/MergeFactory.sol:MergeFactory",
            "label": "IPFSHash",
            "offset": 0,
            "slot": "6",
            "type": "t_string_storage"
          }
        ],
        "numberOfBytes": "224"
      },
      "t_uint256": {
        "encoding": "inplace",
        "label": "uint256",
        "numberOfBytes": "32"
      }
    }
  }
}